:0400000080310F2814
:100008007E14803120007F08F0008B148B1070085C
:10001800FF007E10090080311128CE01CF01D001E8
:10002800A03084000030850020308731FA277E1008
:10003800200087315A2F01302000C0000030C10055
:10004800C301C401FF30BA003A08C200A030BA00A8
:100058003A08F1000230F2000030F300BA308F3174
:10006800A1278031210020082000BA00BB0121000F
:1000780021082000BC00BD013C08BD00BC013A08B5
:100088003C07C0003B083D3DC100003041020D3037
:1000980003194002031C0800A030BA003A082100E6
:1000A800A000A101A0302000BA003A08F1000230F7
:1000B800F2000030F3001F308F3173278031A030F9
:1000C8002000BA003A08F1000030F200F3000630D0
:1000D8008F31732780312100A001A101FF3020005A
:1000E800BA003A082100A200A0302000BA003A085D
:1000F800F1000330F2000030F30002308F31732733
:1001080080318429A0302000BA003A08F10001307B
:10011800F2000030F300BC308F31A127803121007C
:1001280020082000BA003A08C20042080319A8288B
:10013800A030BA003A08F1000230F2000030F300B3
:10014800BE308F31A127803120004208031D862848
:10015800A030BA003A08F1000230F2000030F30093
:10016800BE308F31A1278031210021082000BA003C
:100178003A082100A20020082000BA003A0821000D
:10018800A300A0302000BA003A08F1000230F200C3
:100198000030F300BE308F31A127803121002108C3
:1001A8002000BA003A082100A40020082000BA0064
:1001B8003A082100A500A0302000BA003A08F10052
:1001C8000230F2000030F300BE308F31A1278031B9
:1001D800210021082000BA003A082100A6002008C2
:1001E8002000BA003A082100A700A0302000BA0079
:1001F8003A08F1000230F2000030F300BE308F31CF
:10020800A1278031210021082000BA003A082100E6
:10021800A80020082000BA003A082100A900A03050
:100228002000BA003A08F1000230F2000030F30072
:10023800BE308F31A1278031210021082000BA006B
:100248003A082100AA0020082000BA003A08210034
:10025800AB00A0302000BA003A08F1000230F200EA
:100268000030F300BE308F31A127803121002108F2
:100278002000BA003A082100AC0020082000BA008B
:100288003A082100AD0020004408BA003A082100CD
:10029800A00020004308BA003A082100A100A030BD
:1002A8002000BA003A08F1000E30F2000030F300E6
:1002B80084308F3173278031A0302000BA003A088B
:1002C800F1000230F2000030F300BA308F31A1277C
:1002D8008031210020082000BA00BB01210021083C
:1002E8002000BC00BD013C08BD00BC013A083C0729
:1002F800C0003B083D3DC1000C30C3070030C43D81
:100308000030200041020D3003194002031C9329DC
:100318000F304402FA3003194302031CA82844088A
:10032800BA003A082100A20020004308BA003A089F
:100338002100A30010302000BA003A082100A000D4
:10034800A101A0302000BA003A08F1000430F20000
:100358000030F30084308F3173278031B3302000B0
:10036800A2008530A3004408A5004308A4008231F8
:10037800EC228031A0302000BA003A08F1000330A6
:10038800F2000030F300C0308F31A12780316C308B
:100398002000A2008530A300210022082000BA0016
:1003A800BB013A08A4003B08A50021002108200051
:1003B800BC00BD013C08A6003D08A700210020089C
:1003C8002000BE00BF013E08A8003F08A9008231F6
:1003D800EC228031210020082000BA003A082100D0
:1003E800A40021082000BA003A082100A300103018
:1003F8002000BA003A082100A00002302000BA000C
:100408003A082100A100A0302000BA003A08F10003
:100418000530F2000030F30084308F3173278031CB
:10042800A0302000BA003A08F1000230F200003093
:10043800F300A0308F31A127803185302000A20041
:100448008530A300210021082000BA00BB013A082A
:10045800A4003B08A500210020082000BC00BD0125
:100468003C08A6003D08A7008231EC22803121001B
:1004780020082000BA003A082100A3002108200023
:10048800BA003A082100A20010302000BA003A0849
:100498002100A00005302000BA003A082100A10080
:1004A800A0302000BA003A08F1000430F200003011
:1004B800F30084308F317327803120003708BA0069
:1004C8003808BB003908BC001030BC36BB0CBA0C6D
:1004D800890B692A3A08BD003D082100A0002000C8
:1004E8003708BA003808BB003908BC000830BC36E9
:1004F800BB0CBA0C890B7B2A3A08BD003D082100C9
:10050800A10020003708BA003A082100A2009C3058
:100518002000A2008530A300210020082000BA0096
:10052800BB013A08A4003B08A500210021082000CF
:10053800BC00BD013C08A6003D08A7002100220818
:100548002000BE00BF013E08A8003F08A900823174
:10055800EC228031A0302000BA003A08F1000330C4
:10056800F2000030F30010308F317327803168308B
:100578002000BB00E430BA00BA0BC02ABB0BC02A6B
:100588000000C0302000BA003A082100A000A101F4
:10059800A0302000BA003A08F1000230F200003022
:1005A800F3000F308F3173278031F8302000A2001C
:1005B8008530A300210021082000BA00BB013A08B9
:1005C800A4003B08A5008231EC2221002108080084
:1005D80024302000AA002A08AF0020002308AB001E
:1005E8002208AA00A20A0319A30A2A0884002B08D1
:1005F80085000008AC002C08B6003608031908006E
:100608002530360603190D2B36088F3133278231F2
:10061800F12A2000B401B501B001220884002308A2
:10062800850000088F3138278231031C552B2000A4
:10063800B401B5010A30F1000030F200200035089D
:10064800F4003408F3008731D8278231720820007B
:10065800B5007108B400220884002308850000084A
:10066800D03EAA00FF3003180030AB002A08B407B8
:100678002B08B53D0130A2070030A33D22088400B5
:100688002308850000088F3138278231031C552B39
:100698001E2B2000B017702BC030AA002A08B00407
:1006A800702B20002308AB002208AA00A20A031915
:1006B800A30A2A0884002B0885000008B600003A1F
:1006C8000319622C583A03194D2B2D3A0319502B54
:1006D8000D3A03194D2BF12A2F0886008701403F58
:1006E800B200413FB3000230AA002A08AF07C02B6E
:1006F800B601B60A053036060319C92B3608AA0012
:10070800AB01AA35AB0D5A302A07840085302B3D42
:100718008500003FAC00013FAD002D083302031DEA
:10072800972B2C083202031CC92B0130AA002A0877
:10073800B6077E2BB601B60A043036060319C92B54
:100748003608AA00AB01AA35AB0D64302A0784002D
:1007580085302B3D8500003FAC00013FAD002D08E2
:100768003302031DB92B2C083202031CC92B01309C
:10077800AA002A08B607A02B3008C039803A031906
:100788009E2B403A03197C2BC92B3608AA00AB01D3
:10079800AA1BAB032B08803AAC003508803A2C0220
:1007A800031DD82B34082A020318E52B200036082D
:1007B800AA00AB01AA1BAB032A08B4022B08B53B5D
:1007C800E82B2000B401B501340835040319F92BCE
:1007D80020308F3133278231FF302000B407FF30BB
:1007E800B53D34083504031DEC2B3608AA002A0849
:1007F800B100502C0A30F9000030FA003108AA0084
:10080800AB01AA35AB0D5A302A07840085302B3D41
:100818008500003FF100013FF2003308F400320880
:10082800F3008731A42782317208FC007108FB00AD
:100838008F31462782317908303E2000AC002C08E1
:100848004B2C3108AA00AB01AA35AB0D64302A073E
:10085800840085302B3D8500003FF100013FF20008
:100868003308F4003208F3008731A4278231710875
:100878000F392000AC002C08AE002E08D93E8400A9
:1008880085300318013E85000008AA002A08B60032
:1008980036088F3133278231FF302000AA002A081A
:1008A800B107310A0319F12A3008C039803A03190F
:1008B800252C403A0319FE2B4C2C4C2C0800210007
:1008C80019088739703899001708C1391C389700FA
:1008D800171023008C018D018E01FF3021008C0040
:1008E800FF308D00FF308E008D138D168C120C1288
:1008F8000E100D130E170C150E1122009E161E1643
:1009080024001D121C171D109D141D119D119D16EC
:1009180022001D1523001E121E159F1544309B0032
:100928009C019D179E160B168B1720000E140C1693
:100938000E150B30FA006230F900F90BA12CFA0BF6
:10094800A12C00002100A001A030F9007908F100D5
:100958000130F2000030F3000A308F31A1278431D2
:100968002130F90079082100A000A030F9007908A9
:10097800F1000130F2000030F30010308F31A12770
:1009880084312230F90079082100A000A030F90054
:100998007908F1000130F2000030F30011308F3196
:1009A800A12784312030F90079082100A000A03067
:1009B800F9007908F1000130F2000030F300193035
:1009C8008F31A12784316430F90079082100A00013
:1009D800A030F9007908F1000130F2000030F3008E
:1009E80006308F31A12784310730F90079082100BA
:1009F800A000A030F9007908F1000130F2000030C1
:100A0800F30007308F31A12784310930F9007908C4
:100A18002100A000A030F9007908F1000130F200AF
:100A28000030F30008308F31A12784310830F900F5
:100A380079082100A000A030F9007908F100013000
:100A4800F2000030F3000D308F31A12784310B30D4
:100A5800FA006230F900F90B2F2DFA0B2F2D000048
:100A68001630F90079082100A000A030F9007908B3
:100A7800F1000130F2000030F3000A308F31A12775
:100A88008431A030F9007908F1000030F200F30059
:100A9800FF308F31732784316830FA00E430F90071
:100AA800F90B542DFA0B542D0000080001340034C2
:100AB8000A34003464340034E834033410342734FE
:100AC800013400341034003400340134003410345C
:100AD800543469346D3465345334743461346D344A
:100AE80070343A34203425343234583420342534A0
:100AF8003234583420342534323458342C342034A9
:100B08000034543465346D3470346534723461346F
:100B180074347534723465343A34203425343234BC
:100B2800583420342534323458342C3420340034AA
:100B380041346434643472346534733473343A340D
:100B4800203425343234583420342534323458345F
:100B580020342534323458342C3420340034423490
:100B680079347434653473342034773472346934A6
:100B78007434743465346E343A342034253475341E
:100B88002C3420340034453472346134733469347D
:100B98006E346734203462346C346F3463346B34AD
:100BA8002034253458340A34003430343134323463
:100BB80033343434353436343734383439344134D2
:100BC8004234433444344534463400344534723472
:100BD8006134733469346E346734203464346F3468
:100BE8006E3465340A3400345334743461347434E4
:100BF800753473343A3420342534323458340A3452
:100C08000034C7302000A2008530A3003708A400B4
:100C18003808A5003908A6008231EC228631A030B8
:100C28002000BA003A082100A000A101A03020004D
:100C3800BA003A08F1000230F2000030F3001F3029
:100C48008F3173278631A0302000BA003A08F100AE
:100C58000030F200F30006308F3173278631200010
:100C68003708BA003808BB003908BC001030BC3659
:100C7800BB0CBA0C890B3B2E3A08BD003D0821007D
:100C8800A00020003708BA003808BB003908BC00AB
:100C98000830BC36BB0CBA0C890B4D2E3A08BD0087
:100CA8003D082100A10020003708BA003A082100B9
:100CB800A200A0302000BA003A08F1000330F20088
:100CC8000030F300D8308F31732786316830200028
:100CD800BB00E430BA00BA0B6F2EBB0B6F2E0000BE
:100CE800EA302000A2008530A3008231EC220800FF
:100CF80079082000A0007A08A1007B08A200103023
:100D0800A236A10CA00C890B842E2008A30023086E
:100D18002100A00079082000A0007A08A1007B0823
:100D2800A2000830A236A10CA00C890B962E200830
:100D3800A30023082100A10079082000A0002008B2
:100D48002100A200A0302000A0002008F1000330FC
:100D5800F2000030F30013308F31732786310B30E7
:100D68002000A1006230A000A00BB82EA10BB82E65
:100D7800000020000C120330240099001C1CC22E15
:100D880099011C1CC52E99011C1CC82EFF30990006
:100D98001C1CCC2E2000A401A50110302502803097
:100DA800031924020318ED2EFF30240099001C1C9F
:100DB800DB2E19088731F327863101302000A4077C
:100DC8000030A53D10302502803003192402031C91
:100DD800D82E0C1608002000C8010230200050024E
:100DE800031DFC2E00304F02031DFC2E00304E0266
:100DF80003180800210017103F302000C5000030FC
:100E0800C6000030C7004E08C5054F08C605500883
:100E1800C705470846044504031D1B2F4E08B700A5
:100E28004F08B8005008B9008631052686312000E1
:100E38000D174E08B7004F08B8005008B9008031A8
:100E48001F2086312000C5004508C8000D1348083A
:100E5800031D392F0130CE07003003180130CF07AA
:100E6800003003180130D007552F4030CE0700302E
:100E780003180130CF07003003180130D007C03005
:100E8800C500FF30C600FF30C7004E08C5054F0833
:100E9800C6055008C7054508CE004608CF004708D4
:100EA800D0002100171463000000F12E8431632460
:100EB80087312000CC01CD014D08803AC90080302F
:100EC8004902031D692FC8304C0203188A2F40308D
:100ED80020008D060330CB000830CA007830C900E6
:100EE800C90B742FCA0B742FCB0B742F0130200041
:100EF800CC070030CD3D4D08803AC900803049020A
:100F0800031D882FC8304C02031C6B2F20000E1BBA
:100F1800912F8631EF268731942F8F31CF27873154
:100F2800403020008D060530CB000F30CA00F43069
:100F3800C900C90B9D2FCA0B9D2FCB0B9D2F942F3A
:100F4800F601F701710872040319D32FF801F80AA2
:100F5800F21BB82F0130F135F20D890BAF2F01309C
:100F6800F5007508F807AC2F0130F635F70D890B39
:100F7800B92F72087402031DC32F71087302031C72
:100F8800CA2F7108F3027208F43B76140130F23666
:100F9800F10C890BCB2F0130F802031DB82F77080D
:100FA800F2007608F1000800F501F601711CE02F47
:100FB8007308F5077408F63D0130F335F40D890B15
:100FC800E12F0130F236F10C890BE62F710872041B
:100FD800031DDA2F7608F2007508F1000800F10009
:100FE800710823009A009E180800F72F64008001FA
:080FF8000131890BFB2F0034CD
:101E6600F20072088731F3270800F200F1013A30D8
:101E760072020318442F30307202031C442FF10102
:101E8600F10A710C080079087A0403196E2F2000F4
:101E9600A101A10AFA1B592F0130F935FA0D890B58
:101EA600502F0130A0002008A1074D2F7A087C0290
:101EB600031D5F2F79087B02031C652F7908FB023F
:101EC6007A08FC3B0130FA36F90C890B662F013093
:101ED600A102031D592F7C08FA007B08F9000800AF
:101EE600F60020000C127608240099001C1C792F9D
:101EF600F701F80173087802031D832F7208770231
:101F060003189E2F77087107F4007408860087016E
:101F1600010899001C1C8D2F1908F4007708710719
:101F2600F500750886008701740881000130F707FF
:101F36000030F83D7D2F20000C160800F60020002A
:101F46000E107608240099001C1CA72FF701F80133
:101F560073087802031DB12F720877020318CC2F7D
:101F660077087107F4007408860087010108990054
:101F76001C1CBB2F1908F40077087107F5007508BB
:101F860086008701740881000130F7070030F83DAC
:101F9600AB2F20000E140800023020005002031D53
:101FA600DA2F00304F02031DDA2F00304E020318DD
:101FB60008000D174E08F9004F08FA005008FB00FC
:101FC60086317C268F3120000D130130CE0700307C
:101FD60003180130CF07003003180130D00709304D
:101FE600A8001E30A700EB30A600A60BF82FA70B03
:0A1FF600F82FA80BF82F0000CF2FE2
:020000040001F9
:04000E00ACEFFFFF55
:00000001FF
